{
  "address": "0xe7f1725E7734CE288F8367e1Bb143E90bb3F0512",
  "abi": [
    {
      "anonymous": false,
      "inputs": [
        {
          "indexed": true,
          "internalType": "uint256",
          "name": "ballotId",
          "type": "uint256"
        },
        {
          "indexed": false,
          "internalType": "string",
          "name": "title",
          "type": "string"
        },
        {
          "indexed": true,
          "internalType": "address",
          "name": "creator",
          "type": "address"
        },
        {
          "indexed": false,
          "internalType": "uint256",
          "name": "endTime",
          "type": "uint256"
        }
      ],
      "name": "BallotCreated",
      "type": "event"
    },
    {
      "anonymous": false,
      "inputs": [
        {
          "indexed": true,
          "internalType": "uint256",
          "name": "ballotId",
          "type": "uint256"
        },
        {
          "indexed": false,
          "internalType": "uint256[]",
          "name": "results",
          "type": "uint256[]"
        }
      ],
      "name": "ResultsRevealed",
      "type": "event"
    },
    {
      "anonymous": false,
      "inputs": [
        {
          "indexed": true,
          "internalType": "uint256",
          "name": "ballotId",
          "type": "uint256"
        },
        {
          "indexed": true,
          "internalType": "address",
          "name": "voter",
          "type": "address"
        }
      ],
      "name": "VoteCast",
      "type": "event"
    },
    {
      "inputs": [],
      "name": "ballotCounter",
      "outputs": [
        {
          "internalType": "uint256",
          "name": "",
          "type": "uint256"
        }
      ],
      "stateMutability": "view",
      "type": "function"
    },
    {
      "inputs": [
        {
          "internalType": "uint256",
          "name": "",
          "type": "uint256"
        }
      ],
      "name": "ballots",
      "outputs": [
        {
          "internalType": "string",
          "name": "title",
          "type": "string"
        },
        {
          "internalType": "uint256",
          "name": "endTime",
          "type": "uint256"
        },
        {
          "internalType": "bool",
          "name": "isActive",
          "type": "bool"
        },
        {
          "internalType": "bool",
          "name": "resultsRevealed",
          "type": "bool"
        },
        {
          "internalType": "address",
          "name": "creator",
          "type": "address"
        },
        {
          "internalType": "uint256",
          "name": "totalVotes",
          "type": "uint256"
        }
      ],
      "stateMutability": "view",
      "type": "function"
    },
    {
      "inputs": [
        {
          "internalType": "string",
          "name": "title",
          "type": "string"
        },
        {
          "internalType": "string[]",
          "name": "candidates",
          "type": "string[]"
        },
        {
          "internalType": "uint256",
          "name": "durationMinutes",
          "type": "uint256"
        }
      ],
      "name": "createBallot",
      "outputs": [
        {
          "internalType": "uint256",
          "name": "ballotId",
          "type": "uint256"
        }
      ],
      "stateMutability": "nonpayable",
      "type": "function"
    },
    {
      "inputs": [],
      "name": "getActiveBallots",
      "outputs": [
        {
          "internalType": "uint256[]",
          "name": "activeBallotIds",
          "type": "uint256[]"
        }
      ],
      "stateMutability": "view",
      "type": "function"
    },
    {
      "inputs": [
        {
          "internalType": "uint256",
          "name": "ballotId",
          "type": "uint256"
        }
      ],
      "name": "getBallotInfo",
      "outputs": [
        {
          "internalType": "string",
          "name": "title",
          "type": "string"
        },
        {
          "internalType": "string[]",
          "name": "candidates",
          "type": "string[]"
        },
        {
          "internalType": "uint256",
          "name": "endTime",
          "type": "uint256"
        },
        {
          "internalType": "bool",
          "name": "isActive",
          "type": "bool"
        },
        {
          "internalType": "bool",
          "name": "resultsRevealed",
          "type": "bool"
        },
        {
          "internalType": "address",
          "name": "creator",
          "type": "address"
        },
        {
          "internalType": "uint256",
          "name": "totalVotes",
          "type": "uint256"
        }
      ],
      "stateMutability": "view",
      "type": "function"
    },
    {
      "inputs": [
        {
          "internalType": "uint256",
          "name": "ballotId",
          "type": "uint256"
        },
        {
          "internalType": "uint256",
          "name": "candidateIndex",
          "type": "uint256"
        }
      ],
      "name": "getEncryptedVoteCount",
      "outputs": [
        {
          "internalType": "euint32",
          "name": "",
          "type": "bytes32"
        }
      ],
      "stateMutability": "view",
      "type": "function"
    },
    {
      "inputs": [],
      "name": "getEndedBallots",
      "outputs": [
        {
          "internalType": "uint256[]",
          "name": "endedBallotIds",
          "type": "uint256[]"
        }
      ],
      "stateMutability": "view",
      "type": "function"
    },
    {
      "inputs": [
        {
          "internalType": "uint256",
          "name": "ballotId",
          "type": "uint256"
        }
      ],
      "name": "getResults",
      "outputs": [
        {
          "internalType": "uint256[]",
          "name": "results",
          "type": "uint256[]"
        }
      ],
      "stateMutability": "view",
      "type": "function"
    },
    {
      "inputs": [],
      "name": "getTotalBallots",
      "outputs": [
        {
          "internalType": "uint256",
          "name": "",
          "type": "uint256"
        }
      ],
      "stateMutability": "view",
      "type": "function"
    },
    {
      "inputs": [
        {
          "internalType": "uint256",
          "name": "ballotId",
          "type": "uint256"
        },
        {
          "internalType": "address",
          "name": "voter",
          "type": "address"
        }
      ],
      "name": "hasVoted",
      "outputs": [
        {
          "internalType": "bool",
          "name": "",
          "type": "bool"
        }
      ],
      "stateMutability": "view",
      "type": "function"
    },
    {
      "inputs": [],
      "name": "protocolId",
      "outputs": [
        {
          "internalType": "uint256",
          "name": "",
          "type": "uint256"
        }
      ],
      "stateMutability": "pure",
      "type": "function"
    },
    {
      "inputs": [
        {
          "internalType": "uint256",
          "name": "ballotId",
          "type": "uint256"
        },
        {
          "internalType": "uint256[]",
          "name": "results",
          "type": "uint256[]"
        }
      ],
      "name": "setResults",
      "outputs": [],
      "stateMutability": "nonpayable",
      "type": "function"
    },
    {
      "inputs": [
        {
          "internalType": "uint256",
          "name": "ballotId",
          "type": "uint256"
        },
        {
          "internalType": "uint8",
          "name": "candidateIndex",
          "type": "uint8"
        }
      ],
      "name": "vote",
      "outputs": [],
      "stateMutability": "nonpayable",
      "type": "function"
    },
    {
      "inputs": [
        {
          "internalType": "uint256",
          "name": "ballotId",
          "type": "uint256"
        },
        {
          "internalType": "externalEuint8",
          "name": "encryptedCandidateIndex",
          "type": "bytes32"
        },
        {
          "internalType": "bytes",
          "name": "inputProof",
          "type": "bytes"
        }
      ],
      "name": "voteEncrypted",
      "outputs": [],
      "stateMutability": "nonpayable",
      "type": "function"
    }
  ],
  "transactionHash": "0xdf683213e2ae42b9442eaf4b5123784213524171b4b8a0e78debfae17459d13f",
  "args": [],
  "numDeployments": 1,
  "solcInputHash": "4033fb98d33b64d2fec9a29a4754d57c",
  "bytecode": "0x608060405234801561000f575f5ffd5b5061018a6100ae604080516080810182525f80825260208201819052918101829052606081019190915250604080516080810182527350157cffd6bbfa2dece204a89ec419c23ef5755d815273cd3ab3bd6bcc0c0bf3e27912a92043e817b1cf69602082015273a02cda4ca3a71d7c46997716f4283aa851c2881291810191909152731364cbbf2cdf5032c47d8226a6f6fbd2afcdacac606082015290565b80517f9e7b61f58c47dc699ac88507c4f5bb9f121c03808c5676a8078fe583e464970080546001600160a01b03199081166001600160a01b039384161790915560208301517f9e7b61f58c47dc699ac88507c4f5bb9f121c03808c5676a8078fe583e46497018054831691841691909117905560408301517f9e7b61f58c47dc699ac88507c4f5bb9f121c03808c5676a8078fe583e46497028054831691841691909117905560608301517f9e7b61f58c47dc699ac88507c4f5bb9f121c03808c5676a8078fe583e46497038054909216921691909117905550565b611ec8806101975f395ff3fe608060405234801561000f575f5ffd5b50600436106100e5575f3560e01c806373cd695811610088578063943e821611610063578063943e8216146101d5578063b2b47e52146101e8578063da1f12ab146101fb578063f8bff74514610203575f5ffd5b806373cd6958146101a5578063795e2415146101ba57806381a60c0d146101c2575f5ffd5b8063317b1a33116100c3578063317b1a3314610141578063438596321461014857806350bb332b1461016b5780635c632b3814610180575f5ffd5b8063141bd92a146100e957806320faae8e146101185780632ba5ba7314610139575b5f5ffd5b6100fc6100f736600461169f565b610216565b60405161010f97969594939291906116e4565b60405180910390f35b61012b610126366004611818565b610439565b60405190815260200161010f565b61012b5f5481565b5f5461012b565b61015b610156366004611977565b610692565b604051901515815260200161010f565b61017e6101793660046119b0565b61070c565b005b61019361018e36600461169f565b610975565b60405161010f969594939291906119ff565b6101ad610a3f565b60405161010f9190611a43565b6101ad610b1d565b6101ad6101d036600461169f565b610c2f565b61017e6101e3366004611a85565b610d7f565b61017e6101f6366004611aad565b611004565b61271161012b565b61012b610211366004611b27565b611212565b6060805f5f5f5f5f875f54811061026c5760405162461bcd60e51b815260206004820152601560248201527410985b1b1bdd08191bd95cc81b9bdd08195e1a5cdd605a1b60448201526064015b60405180910390fd5b5f8981526001602081905260409091206002810154600382015491928392908301919060ff1680156102a15750836002015442105b600385015460048601548554610100830460ff16926201000090046001600160a01b0316919087906102d290611b47565b80601f01602080910402602001604051908101604052809291908181526020018280546102fe90611b47565b80156103495780601f1061032057610100808354040283529160200191610349565b820191905f5260205f20905b81548152906001019060200180831161032c57829003601f168201915b5050505050965085805480602002602001604051908101604052809291908181526020015f905b82821015610418578382905f5260205f2001805461038d90611b47565b80601f01602080910402602001604051908101604052809291908181526020018280546103b990611b47565b80156104045780601f106103db57610100808354040283529160200191610404565b820191905f5260205f20905b8154815290600101906020018083116103e757829003601f168201915b505050505081526020019060010190610370565b50505050955098509850985098509850985098505050919395979092949650565b5f60028351101561048c5760405162461bcd60e51b815260206004820152601e60248201527f4174206c6561737420322063616e6469646174657320726571756972656400006044820152606401610263565b600a835111156104de5760405162461bcd60e51b815260206004820152601d60248201527f4d6178696d756d2031302063616e6469646174657320616c6c6f7765640000006044820152606401610263565b5f821161052d5760405162461bcd60e51b815260206004820152601960248201527f4475726174696f6e206d75737420626520706f736974697665000000000000006044820152606401610263565b5f8054908061053b83611b93565b909155505f8181526001602052604090209091508061055b868883611bf7565b505f5b84518110156105ae578160010185828151811061057d5761057d611cb1565b60209081029190910181015182546001810184555f9384529190922001906105a59082611cc5565b5060010161055e565b506105ba83603c611d80565b6105c49042611d97565b60028201556003810180546201000033027fffffffffffffffffffff000000000000000000000000000000000000000000009091161760011790555f600482018190555b845181101561063e5761061a5f6112de565b5f8281526005840160205260409020819055610635906112f6565b50600101610608565b50336001600160a01b0316827f2e2f40333863528dcfae38e7ae871abc608d3959d37904311e9a99ca034cf3838888856002015460405161068193929190611daa565b60405180910390a350949350505050565b5f825f5481106106dc5760405162461bcd60e51b815260206004820152601560248201527410985b1b1bdd08191bd95cc81b9bdd08195e1a5cdd605a1b6044820152606401610263565b50505f9182526001602090815260408084206001600160a01b039390931684526007909201905290205460ff1690565b835f5481106107555760405162461bcd60e51b815260206004820152601560248201527410985b1b1bdd08191bd95cc81b9bdd08195e1a5cdd605a1b6044820152606401610263565b5f85815260016020526040902060030154859060ff166107b75760405162461bcd60e51b815260206004820152601460248201527f42616c6c6f74206973206e6f74206163746976650000000000000000000000006044820152606401610263565b5f8181526001602052604090206002015442106108095760405162461bcd60e51b815260206004820152601060248201526f10985b1b1bdd081a185cc8195b99195960821b6044820152606401610263565b5f868152600160209081526040808320338452600701909152902054869060ff16156108675760405162461bcd60e51b815260206004820152600d60248201526c105b1c9958591e481d9bdd1959609a1b6044820152606401610263565b5f878152600160209081526040918290208251601f8801839004830281018301909352868352916108b49189919089908990819084018382808284375f9201919091525061130592505050565b505f8080526005820160205260409020546108d8906108d360016112de565b611319565b5f80805260058301602052604090208190556108f3906112f6565b505f80805260058201602052604090205461090e9033611347565b50335f9081526007820160205260408120805460ff191660011790556004820180549161093a83611b93565b9091555050604051339089907ff1003b73c437642c0460aee9cd9628b0b8c447b66e6c7c905531b9c644214a11905f90a35050505050505050565b60016020525f908152604090208054819061098f90611b47565b80601f01602080910402602001604051908101604052809291908181526020018280546109bb90611b47565b8015610a065780601f106109dd57610100808354040283529160200191610a06565b820191905f5260205f20905b8154815290600101906020018083116109e957829003601f168201915b50505050600283015460038401546004909401549293909260ff8083169350610100830416916201000090046001600160a01b03169086565b60605f805b5f54811015610a7a575f818152600160205260409020600201544210610a725781610a6e81611b93565b9250505b600101610a44565b508067ffffffffffffffff811115610a9457610a946117d3565b604051908082528060200260200182016040528015610abd578160200160208202803683370190505b5091505f805b5f54811015610b17575f818152600160205260409020600201544210610b0f5780848381518110610af657610af6611cb1565b602090810291909101015281610b0b81611b93565b9250505b600101610ac3565b50505090565b60605f805b5f54811015610b75575f8181526001602052604090206003015460ff168015610b5a57505f8181526001602052604090206002015442105b15610b6d5781610b6981611b93565b9250505b600101610b22565b508067ffffffffffffffff811115610b8f57610b8f6117d3565b604051908082528060200260200182016040528015610bb8578160200160208202803683370190505b5091505f805b5f54811015610b17575f8181526001602052604090206003015460ff168015610bf657505f8181526001602052604090206002015442105b15610c275780848381518110610c0e57610c0e611cb1565b602090810291909101015281610c2381611b93565b9250505b600101610bbe565b6060815f548110610c7a5760405162461bcd60e51b815260206004820152601560248201527410985b1b1bdd08191bd95cc81b9bdd08195e1a5cdd605a1b6044820152606401610263565b5f8381526001602052604090206003810154610100900460ff16610ce05760405162461bcd60e51b815260206004820152601860248201527f526573756c7473206e6f74207965742072657665616c656400000000000000006044820152606401610263565b600181015467ffffffffffffffff811115610cfd57610cfd6117d3565b604051908082528060200260200182016040528015610d26578160200160208202803683370190505b5092505f5b6001820154811015610d77575f818152600683016020526040902054845163ffffffff90911690859083908110610d6457610d64611cb1565b6020908102919091010152600101610d2b565b505050919050565b815f548110610dc85760405162461bcd60e51b815260206004820152601560248201527410985b1b1bdd08191bd95cc81b9bdd08195e1a5cdd605a1b6044820152606401610263565b5f83815260016020526040902060030154839060ff16610e2a5760405162461bcd60e51b815260206004820152601460248201527f42616c6c6f74206973206e6f74206163746976650000000000000000000000006044820152606401610263565b5f818152600160205260409020600201544210610e7c5760405162461bcd60e51b815260206004820152601060248201526f10985b1b1bdd081a185cc8195b99195960821b6044820152606401610263565b5f848152600160209081526040808320338452600701909152902054849060ff1615610eda5760405162461bcd60e51b815260206004820152600d60248201526c105b1c9958591e481d9bdd1959609a1b6044820152606401610263565b5f8581526001602081905260409091209081015460ff861610610f3f5760405162461bcd60e51b815260206004820152601760248201527f496e76616c69642063616e64696461746520696e6465780000000000000000006044820152606401610263565b60ff85165f908152600582016020526040902054610f61906108d360016112de565b60ff86165f9081526005830160205260409020819055610f80906112f6565b5060ff85165f908152600582016020526040902054610f9f9033611347565b50335f9081526007820160205260408120805460ff1916600117905560048201805491610fcb83611b93565b9091555050604051339087907ff1003b73c437642c0460aee9cd9628b0b8c447b66e6c7c905531b9c644214a11905f90a3505050505050565b825f54811061104d5760405162461bcd60e51b815260206004820152601560248201527410985b1b1bdd08191bd95cc81b9bdd08195e1a5cdd605a1b6044820152606401610263565b5f8481526001602052604090206002015484904210156110af5760405162461bcd60e51b815260206004820152601660248201527f42616c6c6f74206973207374696c6c20616374697665000000000000000000006044820152606401610263565b5f8581526001602052604090206003810154610100900460ff16156111165760405162461bcd60e51b815260206004820152601860248201527f526573756c747320616c72656164792072657665616c656400000000000000006044820152606401610263565b600181015484146111695760405162461bcd60e51b815260206004820152601660248201527f496e76616c696420726573756c7473206c656e677468000000000000000000006044820152606401610263565b5f5b848110156111bc5785858281811061118557611185611cb1565b5f8481526006860160209081526040909120805463ffffffff191692909102939093013563ffffffff16179091555060010161116b565b5060038101805461ff00191661010017905560405186907f64f2188073d94c54495d8d20cc95159a169ce86e31e5eb96b08446ef3df0121d906112029088908890611de1565b60405180910390a2505050505050565b5f825f54811061125c5760405162461bcd60e51b815260206004820152601560248201527410985b1b1bdd08191bd95cc81b9bdd08195e1a5cdd605a1b6044820152606401610263565b5f848152600160208190526040909120015483106112bc5760405162461bcd60e51b815260206004820152601760248201527f496e76616c69642063616e64696461746520696e6465780000000000000000006044820152606401610263565b50505f9182526001602090815260408084209284526005909201905290205490565b5f6112f08263ffffffff166004611359565b92915050565b5f6113018230611416565b5090565b5f6113128383600261149f565b9392505050565b5f8261132b576113285f6112de565b92505b8161133c576113395f6112de565b91505b61131283835f6115bf565b5f6113528383611416565b5090919050565b7f9e7b61f58c47dc699ac88507c4f5bb9f121c03808c5676a8078fe583e464970154604051639cd07acb60e01b81525f917f9e7b61f58c47dc699ac88507c4f5bb9f121c03808c5676a8078fe583e4649700916001600160a01b0390911690639cd07acb906113ce9087908790600401611e51565b6020604051808303815f875af11580156113ea573d5f5f3e3d5ffd5b505050506040513d601f19601f8201168201806040525081019061140e9190611e65565b949350505050565b5f7f9e7b61f58c47dc699ac88507c4f5bb9f121c03808c5676a8078fe583e46497008054604051635ca4b5b160e11b8152600481018690526001600160a01b03858116602483015292935091169063b9496b62906044015f604051808303815f87803b158015611484575f5ffd5b505af1158015611496573d5f5f3e3d5ffd5b50505050505050565b7f9e7b61f58c47dc699ac88507c4f5bb9f121c03808c5676a8078fe583e46497015460405163196d0b9b60e01b81525f917f9e7b61f58c47dc699ac88507c4f5bb9f121c03808c5676a8078fe583e4649700916001600160a01b039091169063196d0b9b90611518908890339089908990600401611e7c565b6020604051808303815f875af1158015611534573d5f5f3e3d5ffd5b505050506040513d601f19601f820116820180604052508101906115589190611e65565b8154604051630f8e573b60e21b8152600481018390523360248201529193506001600160a01b031690633e395cec906044015f604051808303815f87803b1580156115a1575f5ffd5b505af11580156115b3573d5f5f3e3d5ffd5b50505050509392505050565b5f5f82156115d25750600160f81b6115d5565b505f5b5f7f9e7b61f58c47dc699ac88507c4f5bb9f121c03808c5676a8078fe583e4649700600181015460405163022f65e760e31b815260048101899052602481018890527fff00000000000000000000000000000000000000000000000000000000000000851660448201529192506001600160a01b03169063117b2f38906064016020604051808303815f875af1158015611671573d5f5f3e3d5ffd5b505050506040513d601f19601f820116820180604052508101906116959190611e65565b9695505050505050565b5f602082840312156116af575f5ffd5b5035919050565b5f81518084528060208401602086015e5f602082860101526020601f19601f83011685010191505092915050565b60e081525f6116f660e083018a6116b6565b828103602084015280895180835260208301915060208160051b84010160208c015f5b8381101561174b57601f198684030185526117358383516116b6565b6020958601959093509190910190600101611719565b5050604086018b90528915156060870152935061176792505050565b93151560808201526001600160a01b039290921660a083015260c090910152949350505050565b5f5f83601f84011261179e575f5ffd5b50813567ffffffffffffffff8111156117b5575f5ffd5b6020830191508360208285010111156117cc575f5ffd5b9250929050565b634e487b7160e01b5f52604160045260245ffd5b604051601f8201601f1916810167ffffffffffffffff81118282101715611810576118106117d3565b604052919050565b5f5f5f5f6060858703121561182b575f5ffd5b843567ffffffffffffffff811115611841575f5ffd5b61184d8782880161178e565b909550935050602085013567ffffffffffffffff81111561186c575f5ffd5b8501601f8101871361187c575f5ffd5b803567ffffffffffffffff811115611896576118966117d3565b8060051b6118a6602082016117e7565b9182526020818401810192908101908a8411156118c1575f5ffd5b6020850192505b8383101561196357823567ffffffffffffffff8111156118e6575f5ffd5b8501603f81018c136118f6575f5ffd5b602081013567ffffffffffffffff811115611913576119136117d3565b611926601f8201601f19166020016117e7565b8181526040838301018e101561193a575f5ffd5b816040840160208301375f602083830101528085525050506020820191506020830192506118c8565b979a96995096976040013596505050505050565b5f5f60408385031215611988575f5ffd5b8235915060208301356001600160a01b03811681146119a5575f5ffd5b809150509250929050565b5f5f5f5f606085870312156119c3575f5ffd5b8435935060208501359250604085013567ffffffffffffffff8111156119e7575f5ffd5b6119f38782880161178e565b95989497509550505050565b60c081525f611a1160c08301896116b6565b602083019790975250931515604085015291151560608401526001600160a01b0316608083015260a090910152919050565b602080825282518282018190525f918401906040840190835b81811015611a7a578351835260209384019390920191600101611a5c565b509095945050505050565b5f5f60408385031215611a96575f5ffd5b82359150602083013560ff811681146119a5575f5ffd5b5f5f5f60408486031215611abf575f5ffd5b83359250602084013567ffffffffffffffff811115611adc575f5ffd5b8401601f81018613611aec575f5ffd5b803567ffffffffffffffff811115611b02575f5ffd5b8660208260051b8401011115611b16575f5ffd5b939660209190910195509293505050565b5f5f60408385031215611b38575f5ffd5b50508035926020909101359150565b600181811c90821680611b5b57607f821691505b602082108103611b7957634e487b7160e01b5f52602260045260245ffd5b50919050565b634e487b7160e01b5f52601160045260245ffd5b5f60018201611ba457611ba4611b7f565b5060010190565b601f821115611bf257805f5260205f20601f840160051c81016020851015611bd05750805b601f840160051c820191505b81811015611bef575f8155600101611bdc565b50505b505050565b67ffffffffffffffff831115611c0f57611c0f6117d3565b611c2383611c1d8354611b47565b83611bab565b5f601f841160018114611c54575f8515611c3d5750838201355b5f19600387901b1c1916600186901b178355611bef565b5f83815260208120601f198716915b82811015611c835786850135825560209485019460019092019101611c63565b5086821015611c9f575f1960f88860031b161c19848701351681555b505060018560011b0183555050505050565b634e487b7160e01b5f52603260045260245ffd5b815167ffffffffffffffff811115611cdf57611cdf6117d3565b611cf381611ced8454611b47565b84611bab565b6020601f821160018114611d25575f8315611d0e5750848201515b5f19600385901b1c1916600184901b178455611bef565b5f84815260208120601f198516915b82811015611d545787850151825560209485019460019092019101611d34565b5084821015611d7157868401515f19600387901b60f8161c191681555b50505050600190811b01905550565b80820281158282048414176112f0576112f0611b7f565b808201808211156112f0576112f0611b7f565b60408152826040820152828460608301375f606084830101525f6060601f19601f8601168301019050826020830152949350505050565b602081528160208201525f7f07ffffffffffffffffffffffffffffffffffffffffffffffffffffffffffffff831115611e18575f5ffd5b8260051b80856040850137919091016040019392505050565b60548110611e4d57634e487b7160e01b5f52602160045260245ffd5b9052565b828152604081016113126020830184611e31565b5f60208284031215611e75575f5ffd5b5051919050565b8481526001600160a01b0384166020820152608060408201525f611ea360808301856116b6565b9050611eb26060830184611e31565b9594505050505056fea164736f6c634300081b000a",
  "devdoc": {
    "author": "SecretBallotBox Team",
    "kind": "dev",
    "methods": {
      "createBallot(string,string[],uint256)": {
        "params": {
          "candidates": "Array of candidate names",
          "durationMinutes": "How long the ballot should be active (in minutes)",
          "title": "The title of the ballot"
        }
      },
      "getActiveBallots()": {
        "returns": {
          "activeBallotIds": "Array of active ballot IDs"
        }
      },
      "getBallotInfo(uint256)": {
        "params": {
          "ballotId": "The ID of the ballot"
        },
        "returns": {
          "candidates": "Array of candidate names",
          "creator": "The address that created the ballot",
          "endTime": "When the ballot ends",
          "isActive": "Whether the ballot is still active",
          "resultsRevealed": "Whether results have been revealed",
          "title": "The title of the ballot",
          "totalVotes": "Total number of votes cast"
        }
      },
      "getEncryptedVoteCount(uint256,uint256)": {
        "params": {
          "ballotId": "The ID of the ballot",
          "candidateIndex": "The index of the candidate"
        },
        "returns": {
          "_0": "The encrypted vote count handle"
        }
      },
      "getEndedBallots()": {
        "returns": {
          "endedBallotIds": "Array of ended ballot IDs"
        }
      },
      "getResults(uint256)": {
        "params": {
          "ballotId": "The ID of the ballot"
        },
        "returns": {
          "results": "Array of vote counts for each candidate"
        }
      },
      "getTotalBallots()": {
        "returns": {
          "_0": "The total number of ballots"
        }
      },
      "hasVoted(uint256,address)": {
        "params": {
          "ballotId": "The ID of the ballot",
          "voter": "The address to check"
        },
        "returns": {
          "_0": "Whether the address has voted"
        }
      },
      "setResults(uint256,uint256[])": {
        "details": "This function should be called after decrypting the vote counts off-chain",
        "params": {
          "ballotId": "The ID of the ballot to set results for",
          "results": "Array of decrypted vote counts"
        }
      },
      "vote(uint256,uint8)": {
        "details": "In a real implementation, this would use encrypted input",
        "params": {
          "ballotId": "The ID of the ballot to vote on",
          "candidateIndex": "The plain candidate index (0-based)"
        }
      },
      "voteEncrypted(uint256,bytes32,bytes)": {
        "params": {
          "ballotId": "The ID of the ballot to vote on",
          "encryptedCandidateIndex": "The encrypted index of the chosen candidate",
          "inputProof": "The proof for the encrypted input"
        }
      }
    },
    "title": "SecretBallotBox - A privacy-preserving voting system using FHEVM",
    "version": 1
  },
  "userdoc": {
    "kind": "user",
    "methods": {
      "createBallot(string,string[],uint256)": {
        "notice": "Create a new ballot"
      },
      "getActiveBallots()": {
        "notice": "Get all active ballots"
      },
      "getBallotInfo(uint256)": {
        "notice": "Get ballot information"
      },
      "getEncryptedVoteCount(uint256,uint256)": {
        "notice": "Get encrypted vote count for a specific candidate (for off-chain decryption)"
      },
      "getEndedBallots()": {
        "notice": "Get all ended ballots"
      },
      "getResults(uint256)": {
        "notice": "Get the final results of a ballot (only available after results are revealed)"
      },
      "getTotalBallots()": {
        "notice": "Get the total number of ballots created"
      },
      "hasVoted(uint256,address)": {
        "notice": "Check if an address has voted on a specific ballot"
      },
      "setResults(uint256,uint256[])": {
        "notice": "Set the results of a ballot (called after off-chain decryption)"
      },
      "vote(uint256,uint8)": {
        "notice": "Cast an encrypted vote (simplified version)"
      },
      "voteEncrypted(uint256,bytes32,bytes)": {
        "notice": "Cast an encrypted vote using FHEVM encrypted input"
      }
    },
    "notice": "This contract allows for encrypted voting where votes remain private until results are revealed",
    "version": 1
  },
  "storageLayout": {
    "storage": [
      {
        "astId": 39068,
        "contract": "contracts/SecretBallotBox.sol:SecretBallotBox",
        "label": "ballotCounter",
        "offset": 0,
        "slot": "0",
        "type": "t_uint256"
      },
      {
        "astId": 39073,
        "contract": "contracts/SecretBallotBox.sol:SecretBallotBox",
        "label": "ballots",
        "offset": 0,
        "slot": "1",
        "type": "t_mapping(t_uint256,t_struct(Ballot)39066_storage)"
      }
    ],
    "types": {
      "t_address": {
        "encoding": "inplace",
        "label": "address",
        "numberOfBytes": "20"
      },
      "t_array(t_string_storage)dyn_storage": {
        "base": "t_string_storage",
        "encoding": "dynamic_array",
        "label": "string[]",
        "numberOfBytes": "32"
      },
      "t_bool": {
        "encoding": "inplace",
        "label": "bool",
        "numberOfBytes": "1"
      },
      "t_mapping(t_address,t_bool)": {
        "encoding": "mapping",
        "key": "t_address",
        "label": "mapping(address => bool)",
        "numberOfBytes": "32",
        "value": "t_bool"
      },
      "t_mapping(t_uint256,t_struct(Ballot)39066_storage)": {
        "encoding": "mapping",
        "key": "t_uint256",
        "label": "mapping(uint256 => struct SecretBallotBox.Ballot)",
        "numberOfBytes": "32",
        "value": "t_struct(Ballot)39066_storage"
      },
      "t_mapping(t_uint256,t_uint32)": {
        "encoding": "mapping",
        "key": "t_uint256",
        "label": "mapping(uint256 => uint32)",
        "numberOfBytes": "32",
        "value": "t_uint32"
      },
      "t_mapping(t_uint256,t_userDefinedValueType(euint32)39943)": {
        "encoding": "mapping",
        "key": "t_uint256",
        "label": "mapping(uint256 => euint32)",
        "numberOfBytes": "32",
        "value": "t_userDefinedValueType(euint32)39943"
      },
      "t_string_storage": {
        "encoding": "bytes",
        "label": "string",
        "numberOfBytes": "32"
      },
      "t_struct(Ballot)39066_storage": {
        "encoding": "inplace",
        "label": "struct SecretBallotBox.Ballot",
        "members": [
          {
            "astId": 39039,
            "contract": "contracts/SecretBallotBox.sol:SecretBallotBox",
            "label": "title",
            "offset": 0,
            "slot": "0",
            "type": "t_string_storage"
          },
          {
            "astId": 39042,
            "contract": "contracts/SecretBallotBox.sol:SecretBallotBox",
            "label": "candidates",
            "offset": 0,
            "slot": "1",
            "type": "t_array(t_string_storage)dyn_storage"
          },
          {
            "astId": 39044,
            "contract": "contracts/SecretBallotBox.sol:SecretBallotBox",
            "label": "endTime",
            "offset": 0,
            "slot": "2",
            "type": "t_uint256"
          },
          {
            "astId": 39046,
            "contract": "contracts/SecretBallotBox.sol:SecretBallotBox",
            "label": "isActive",
            "offset": 0,
            "slot": "3",
            "type": "t_bool"
          },
          {
            "astId": 39048,
            "contract": "contracts/SecretBallotBox.sol:SecretBallotBox",
            "label": "resultsRevealed",
            "offset": 1,
            "slot": "3",
            "type": "t_bool"
          },
          {
            "astId": 39050,
            "contract": "contracts/SecretBallotBox.sol:SecretBallotBox",
            "label": "creator",
            "offset": 2,
            "slot": "3",
            "type": "t_address"
          },
          {
            "astId": 39052,
            "contract": "contracts/SecretBallotBox.sol:SecretBallotBox",
            "label": "totalVotes",
            "offset": 0,
            "slot": "4",
            "type": "t_uint256"
          },
          {
            "astId": 39057,
            "contract": "contracts/SecretBallotBox.sol:SecretBallotBox",
            "label": "encryptedVotes",
            "offset": 0,
            "slot": "5",
            "type": "t_mapping(t_uint256,t_userDefinedValueType(euint32)39943)"
          },
          {
            "astId": 39061,
            "contract": "contracts/SecretBallotBox.sol:SecretBallotBox",
            "label": "finalResults",
            "offset": 0,
            "slot": "6",
            "type": "t_mapping(t_uint256,t_uint32)"
          },
          {
            "astId": 39065,
            "contract": "contracts/SecretBallotBox.sol:SecretBallotBox",
            "label": "hasVoted",
            "offset": 0,
            "slot": "7",
            "type": "t_mapping(t_address,t_bool)"
          }
        ],
        "numberOfBytes": "256"
      },
      "t_uint256": {
        "encoding": "inplace",
        "label": "uint256",
        "numberOfBytes": "32"
      },
      "t_uint32": {
        "encoding": "inplace",
        "label": "uint32",
        "numberOfBytes": "4"
      },
      "t_userDefinedValueType(euint32)39943": {
        "encoding": "inplace",
        "label": "euint32",
        "numberOfBytes": "32"
      }
    }
  }
}